:020000040800F2
:100000000000022009040008350300083903000835
:100010003D030008410300084503000800000000FC
:100020000000000000000000000000005121000856
:10003000490300080000000011230008792300088C
:10004000590400085904000859040008590400081C
:10005000590400085904000859040008590400080C
:1000600059040008590400085904000859040008FC
:1000700059040008590400085904000859040008EC
:1000800059040008590400085904000859040008DC
:1000900059040008590400085904000859040008CC
:1000A00059040008590400085904000859040008BC
:1000B00059040008590400085904000859040008AC
:1000C000590400085904000859040008590400089C
:1000D000590400085904000859040008590400088C
:1000E000590400085904000859040008590400087C
:1000F000590400085904000859040008590400086C
:10010000590400085904000859040008590400085B
:10011000590400085904000859040008590400084B
:10012000590400085904000859040008590400083B
:10013000590400085904000859040008590400082B
:10014000590400085904000859040008590400081B
:10015000590400085904000859040008590400080B
:1001600059040008590400085904000859040008FB
:100170005904000859040008590400080000000050
:080180005904000859040008AD
:1001880010B5054C237833B9044B13B10448AFF3C9
:1001980000800123237010BD3004002000000000FF
:1001A800D8250008084B10B51BB108490848AFF31B
:1001B80000800848036803B910BD074B002BFBD02B
:1001C800BDE81040184700BF0000000034040020BC
:1001D800D8250008300400200000000000B585B0D4
:1001E80000F070F800F036F900F030F800F0AAF8E6
:1001F8000023039300230293002301930123009318
:10020800002380220349044801F032F801F05CF928
:10021800FEE700BFF02500082502000800B583B0FE
:10022800019001224FF40071074800F023FCC82018
:1002380001F0F6F800224FF40071034800F01AFCB0
:10024800C82001F0EDF8ECE70014024000B593B0C7
:10025800012301934FF48033029300230493022374
:1002680007934FF480030893192309934FF4D87325
:100278000A9302230B9309230C9301AB184600F051
:1002880013FC0346002B01D000F01AF80F230D933E
:1002980002230E9300230F934FF4A05310934FF4AF
:1002A800805311930DAB0721184600F055FE034605
:1002B800002B01D000F004F800BF13B05DF804FB78
:1002C800FEE700BF00B585B000F0D6F901238DF830
:1002D8000030144B019311238DF8083003238DF857
:1002E8000B3000238DF80F3001238DF80E300023DA
:1002F8008DF80D3000238DF8013000238DF80A3079
:1003080000238DF8093000238DF80C306B46184611
:1003180000F0DCF9042000F0C1F900BF05B05DF879
:1003280004FB00BF0000012000BF704700BF7047FA
:10033800FEE700BFFEE700BFFEE700BFFEE700BF25
:1003480000BF704700B587B000230093114A114BD6
:100358001B6B43F0200313630E4B1B6B03F020034E
:100368000093009B4FF4C06301930123029303237E
:1003780004930023039301AB1946074800F0E4F9FE
:1003880000224FF4C061044800F074FB00BF07B0BE
:100398005DF804FB0038024000140240154A154B72
:1003A800D3F8883043F47003C2F88830124A124BED
:1003B8001B6843F0010313600F4B00229A600E4A3A
:1003C8000D4B1B6823F0847323F4803313600A4BAE
:1003D8000A4A5A60084A084B1B6823F480231360B2
:1003E800054B0022DA60034B4FF000629A6000BFB1
:1003F800704700BF00ED00E00038024010300024D4
:10040800DFF834D0002103E00C4B5B584350043133
:100418000B480C4B42189A42F6D30B4A02E00023D1
:1004280042F8043B094B9A42F9D3FFF7B7FF01F0B2
:10043800E3FFFFF7D3FE7047000002201C260008E8
:1004480000000020300400203004002098410020E3
:10045800FEE7000008B50E4A0D4B1B6843F4007315
:1004680013600B4A0A4B1B6843F480631360084A05
:10047800074B1B6843F480731360032000F0CAF82D
:100488000F2000F007F8FFF74FFF0023184608BDBC
:10049800003C024000B583B001900A4B1B680A4A31
:1004A800A2FB03239B09184600F0DAF80022019901
:1004B8004FF0FF3000F0B8F80023184603B05DF89D
:1004C80004FB00BF00000020D34D6210014B1B68E5
:1004D800184670479441002084B00190019B03F0B6
:1004E800070303930B4BDB680293029A4FF6FF0353
:1004F80013400293039B1A02029B134343F0BF630A
:1005080043F400330293034A029BD36000BF04B054
:10051800704700BF00ED00E0034BDB6803F4E063C5
:100528001B0A1846704700BF00ED00E082B0034682
:1005380000918DF807309DF90730002B0CDA0D4932
:100548009DF8073003F00F03043B009AD2B2120162
:10055800D2B20B441A7609E007499DF90730009A90
:10056800D2B21201D2B20B4483F8002300BF02B00A
:10057800704700BF00ED00E000E100E088B00390A4
:1005880002910192039B03F007030793079BC3F1B2
:100598000703042B28BF04230693079B0433062B69
:1005A80002D9079B033B00E0002305930122069B29
:1005B80002FA03F35A1E029B1A40059B9A40012136
:1005C800059B01FA03F3591E019B0B401343184680
:1005D80008B0704700B583B00190019B013BB3F1AF
:1005E800807F01D301230FE0094A019B013B53603F
:1005F8000F214FF0FF30FFF799FF054B00229A605B
:10060800034B07221A600023184603B05DF804FB69
:1006180010E000E000B583B001900198FFF75CFF9F
:1006280000BF03B05DF804FB00B587B00346029134
:1006380001928DF80F3000230593FFF76DFF0590A9
:10064800019A02990598FFF799FF02469DF90F3024
:1006580011461846FFF76AFF00BF07B05DF804FBB4
:1006680000B583B001900198FFF7B4FF0346184620
:1006780003B05DF804FB00BFBFF35F8F054A054B6D
:100688005B6A23F480335362034B00225A6000BF35
:10069800704700BF00ED00E090ED00E082B00190EF
:1006A800084A019B43F001035360074A064B5B6A03
:1006B80043F480335362BFF34F8FBFF36F8F00BF94
:1006C80002B0704790ED00E000ED00E082B00190CC
:1006D8001C4A019B5B789360019B1B78002B28D0F8
:1006E800184A019B5B68D3601649019B1B7B1A075C
:1006F800019BDB7A1B061A43019B9B7ADB041A4396
:10070800019B5B7B9B041A43019B9B7B5B041A4305
:10071800019BDB7B1B041A43019B5B7A1B021A4378
:10072800019B1B7A5B001343019A127813430B61F8
:1007380005E0044B0022DA60024B00221A6100BF78
:1007480002B0704790ED00E088B00190009100235E
:1007580005930023049300230693002307936BE17A
:100768000122079B02FA03F30593009B1A68059B75
:1007780013400493049A059B9A4240F05A81009BC7
:100788005B68022B03D0009B5B68122B23D1079B6D
:10079800DA08019B083253F822300693079B03F0CE
:1007A80007039B000F2202FA03F3DB43069A134068
:1007B8000693009B1A69079B03F007039B0002FA44
:1007C80003F3069A13430693079BDA08019B083242
:1007D800069943F82210019B1B680693079B5B0050
:1007E800032202FA03F3DB43069A13400693009BA5
:1007F8005B6803F00302079B5B0002FA03F3069AA7
:1008080013430693019B069A1A60009B5B68012BB1
:100818000BD0009B5B68022B07D0009B5B68112BF9
:1008280003D0009B5B68122B30D1019B9B68069319
:10083800079B5B00032202FA03F3DB43069A13408B
:100848000693009BDA68079B5B0002FA03F3069A9B
:1008580013430693019B069A9A60019B5B68069373
:100868000122079B02FA03F3DB43069A134006931F
:10087800009B5B681B0903F00102079B02FA03F364
:10088800069A13430693019B069A5A60019BDB68FC
:100898000693079B5B00032202FA03F3DB43069AE5
:1008A80013400693009B9A68079B5B0002FA03F3C8
:1008B800069A13430693019B069ADA60009B5B68CD
:1008C80003F08053002B00F0B480002303935E4AAA
:1008D8005D4B5B6C43F4804353645B4B5B6C03F48C
:1008E80080430393039B594A079B9B08023352F8A2
:1008F80023300693079B03F003039B000F2202FAA1
:1009080003F3DB43069A13400693019B504A934234
:100918002BD0019B4F4A934225D0019B4E4A9342CC
:100928001FD0019B4D4A934219D0019B4C4A9342D8
:1009380013D0019B4B4A93420DD0019B4A4A9342E4
:1009480007D0019B494A934201D107230EE00823AF
:100958000CE006230AE0052308E0042306E003234D
:1009680004E0022302E0012300E00023079A02F0DA
:10097800030292009340069A134306933349079B58
:100988009B080233069A41F82320394B1B680693CB
:10099800049BDB43069A13400693009B5B6803F4B1
:1009A8008033002B03D0069A049B13430693304AE6
:1009B800069B13602E4B5B680693049BDB43069AE9
:1009C80013400693009B5B6803F40033002B03D0AD
:1009D800069A049B13430693254A069B5360244BAF
:1009E8009B680693049BDB43069A13400693009B7F
:1009F8005B6803F48013002B03D0069A049B13430F
:100A080006931B4A069B9360194BDB680693049B6D
:100A1800DB43069A13400693009B5B6803F40013BC
:100A2800002B03D0069A049B13430693104A069B97
:100A3800D360079B01330793079B0F2B7FF690AE7C
:100A480000BF08B0704700BF0038024000380140BE
:100A5800000002400004024000080240000C02406E
:100A6800001002400014024000180240001C02401E
:100A7800003C014082B001900B46ADF802301346AD
:100A88008DF801309DF80130002B04D0BDF802200C
:100A9800019B9A6104E0BDF802301A04019B9A6137
:100AA80000BF02B0704700BF00B58FB001900023AF
:100AB8000D93019B1B6803F00103002B74D0A44B1A
:100AC8009B6803F00C03042B0BD0A14B9B6803F02D
:100AD8000C03082B11D19E4B5B6803F48003002B99
:100AE8000BD09B4B1B6803F40033002B5BD0019B9E
:100AF8005B68002B57D1012324E2019B5B68B3F5A7
:100B0800803F06D1924A924B1B6843F480331360AE
:100B18001DE0019B5B68B3F5A02F0CD18C4A8C4B70
:100B28001B6843F480231360894A894B1B6843F48C
:100B3800803313600BE0864A854B1B6823F48033AF
:100B48001360834A824B1B6823F480231360019B44
:100B58005B68002B13D0FFF7B9FC0D9008E0FFF796
:100B6800B5FC02460D9BD31A642B01D90323E9E196
:100B7800774B1B6803F40033002BF0D014E0FFF729
:100B8800A5FC0D9008E0FFF7A1FC02460D9BD31AC7
:100B9800642B01D90323D5E16D4B1B6803F40033A3
:100BA800002BF0D100E000BF019B1B6803F002039B
:100BB800002B77D0664B9B6803F00C03002B0BD0FF
:100BC800634B9B6803F00C03082B26D1604B5B68D2
:100BD80003F48003002B20D15D4B1B6803F0020354
:100BE800002B05D0019BDB68012B01D00123A9E173
:100BF8005748574B1B6823F0F802019B1969F823E3
:100C08000893089B93FAA3F30793079BB3FA83F31C
:100C180001FA03F31343036044E0019BDB68002BF4
:100C28002AD04C4B01221A60FFF750FC0D9008E0C7
:100C3800FFF74CFC02460D9BD31A022B01D9032364
:100C480080E1434B1B6803F00203002BF0D04048BF
:100C58003F4B1B6823F0F802019B1969F8230B939B
:100C68000B9B93FAA3F30693069BB3FA83F301FA5B
:100C780003F31343036015E0364B00221A60FFF7B5
:100C880025FC0D9008E0FFF721FC02460D9BD31AC6
:100C9800022B01D9032355E12D4B1B6803F00203F6
:100CA800002BF0D1019B1B6803F00803002B30D008
:100CB800019B5B69002B16D0274B01221A60FFF7B6
:100CC80005FC0D9008E0FFF701FC02460D9BD31AC6
:100CD800022B01D9032335E11D4B5B6F03F002039F
:100CE800002BF0D015E01C4B00221A60FFF7EEFB3A
:100CF8000D9008E0FFF7EAFB02460D9BD31A022B82
:100D080001D903231EE1124B5B6F03F00203002B92
:100D1800F0D1019B1B6803F00403002B00F08680D0
:100D2800002302930A4A0A4B1B6C43F08053136456
:100D3800074B1B6C03F080530293029B074A074B37
:100D48001B6843F480731360FFF7C0FB0D9010E03D
:100D58000038024000004742800E474200700040C1
:100D6800FFF7B4FB02460D9BD31A022B01D90323CC
:100D7800E8E0764B1B6803F48073002BF0D0019BEE
:100D88009B68012B06D1724A714B1B6F43F001031C
:100D980013671CE0019B9B68052B0CD16C4A6C4BBC
:100DA8001B6F43F004031367694A694B1B6F43F0D9
:100DB800010313670BE0664A654B1B6F23F00103C1
:100DC8001367634A624B1B6F23F004031367019B8D
:100DD8009B68002B15D0FFF779FB0D900AE0FFF711
:100DE80075FB02460D9BD31A41F28832934201D912
:100DF8000323A7E0564B1B6F03F00203002BEED032
:100E080014E0FFF763FB0D900AE0FFF75FFB024673
:100E18000D9BD31A41F28832934201D9032391E002
:100E28004B4B1B6F03F00203002BEED1019B9B6918
:100E3800002B00F08680464B9B6803F00C03082BC0
:100E48007DD0019B9B69022B62D1424B00221A6024
:100E5800FFF73CFB0D9008E0FFF738FB02460D9BBF
:100E6800D31A022B01D903236CE0394B1B6803F01A
:100E78000073002BF0D13648019BDA69019B1B6A8D
:100E88001A43019B596A47F6C0730A930A9B93FA5F
:100E9800A3F30393039BB3FA83F301FA03F31A430F
:100EA800019B9B6A5B08591E4FF440330993099BC9
:100EB80093FAA3F30493049BB3FA83F301FA03F3BD
:100EC8001A43019BD96A4FF070630C930C9B93FAF9
:100ED800A3F30593059BB3FA83F301FA03F31343D2
:100EE80043601C4B01221A60FFF7F0FA0D9008E0EE
:100EF800FFF7ECFA02460D9BD31A022B01D9032304
:100F080020E0134B1B6803F00073002BF0D018E0AF
:100F1800104B00221A60FFF7D9FA0D9008E0FFF78E
:100F2800D5FA02460D9BD31A022B01D9032309E0F7
:100F3800074B1B6803F00073002BF0D101E001237D
:100F480000E0002318460FB05DF804FB0070004075
:100F5800003802406000474200B587B00190009118
:100F680000230593814B1B6803F00F02009B9A42F4
:100F78000CD27E4B009AD2B21A707C4B1B6803F0DD
:100F88000F02009B9A4201D00123EAE0019B1B68F3
:100F980003F00203002B08D07549754B9B6823F0BA
:100FA800F002019B9B6813438B60019B1B6803F055
:100FB8000103002B00F08680019B5B68012B07D1A1
:100FC8006B4B1B6803F40033002B19D10123C8E0D5
:100FD800019B5B68022B03D0019B5B68032B07D145
:100FE800634B1B6803F00073002B09D10123B8E0A1
:100FF8005F4B1B6803F00203002B01D10123B0E013
:101008005B495B4B9B6823F00302019B5B681343BE
:101018008B60FFF75BFA0590019B5B68012B12D18F
:101028000AE0FFF753FA0246059BD31A41F28832C9
:10103800934201D9032394E04D4B9B6803F00C03C2
:10104800042BEED13EE0019B5B68022B12D10AE033
:10105800FFF73CFA0246059BD31A41F288329342C5
:1010680001D903237DE0424B9B6803F00C03082B56
:10107800EED127E0019B5B68032B1DD10AE0FFF747
:1010880025FA0246059BD31A41F28832934201D9C8
:10109800032366E0364B9B6803F00C030C2BEED160
:1010A80010E0FFF713FA0246059BD31A41F2883283
:1010B800934201D9032354E02D4B9B6803F00C03A2
:1010C800002BEED1294B1B6803F00F02009B9A42BC
:1010D8000CD9264B009AD2B21A70244B1B6803F025
:1010E8000F02009B9A4201D001233AE0019B1B6842
:1010F80003F00403002B08D01D491D4B9B6823F403
:10110800E052019BDB6813438B60019B1B6803F073
:101118000803002B09D01649154B9B6823F460423D
:10112800019B1B69DB0013438B6000F027F8014625
:101138000F4B9B6803F0F002F0230493049B93FA8F
:10114800A3F30393039BB3FA83F322FA03F3094A45
:10115800D35C21FA03F3084A13600F20FFF79AF9CA
:101168000023184607B05DF804FB00BF003C0240AE
:1011780000380240FC250008000000208AB0002347
:101188000793002309930023069300230893354B04
:101198009B6803F00C03042B06D0082B07D0002B08
:1011A80058D1314B089358E0304B089355E02D4BFC
:1011B8005B6803F03F0307932A4B5B6803F48003E3
:1011C800002B17D0294A079BB2FBF3F2254B59682D
:1011D80047F6C0730B4047F6C0710391039991FA23
:1011E800A1F102910299B1FA81F1CB4003FB02F31C
:1011F800099316E01C4A079BB2FBF3F2194B596896
:1012080047F6C0730B4047F6C0710591059991FAEE
:10121800A1F101910199B1FA81F1CB4003FB02F3ED
:101228000993104B5B6803F440324FF44033049346
:10123800049B93FAA3F30093009BB3FA83F322FA77
:1012480003F301335B000693099A069BB2FBF3F3A1
:10125800089302E0044B089300BF089B18460AB0A5
:10126800704700BF003802400024F40040787D0138
:1012780000B58DB00590049102931346ADF80E3079
:10128800059B002B0BD14FF0500372B683F31188E6
:10129800BFF36F8FBFF34F8F62B60693FEE70E9BC7
:1012A800062B0BD94FF0500372B683F31188BFF3A6
:1012B8006F8FBFF34F8F62B60793FEE7BDF80E300E
:1012C8001099184600F018FC0A900A9B002B7CD055
:1012D8000A9B1A6BBDF80E3003F18043013B9B005B
:1012E80013440993099B23F007030993099B03F00F
:1012F8000703002B0BD04FF0500372B683F311880D
:10130800BFF36F8FBFF34F8F62B60893FEE7BDF848
:101318000E300093119B0E9A04990A9800F0EAFA8D
:10132800029A0599099800F0C1FE02460A9B1A60C4
:101338000F9B002B02D00F9B0A9A1A6000F092FFB5
:10134800304B1B6801332F4A13602F4B1B68002B4F
:1013580009D12D4A0A9B13602A4B1B68012B0FD118
:1013680000F01CFB0CE0294B1B68002B08D1264B16
:101378001B68DA6A0E9B9A4202D8234A0A9B1360BA
:10138800234B1B680133224A1360214B1A680A9BBE
:101398005A640A9BDB6A01229A401E4B1B6813435E
:1013A8001C4A13600A9BDA6A13469B0013449B008D
:1013B800194A1A440A9B04331946104600F0FCFDEA
:1013C80001230B9300F07CFF02E04FF0FF330B93F7
:1013D8000B9B012B11D10D4B1B68002B0DD00A4B19
:1013E8001B68DA6A0E9B9A4207D20C4B4FF0805268
:1013F8001A60BFF34F8FBFF36F8F0B9B18460DB06A
:101408005DF804FB4C0500204C0400205805002022
:1014180068050020540500205004002004ED00E079
:1014280000B587B0019000230593019B002B31D0B4
:10143800204B1B68002B0BD04FF0500372B683F380
:101448001188BFF36F8FBFF34F8F62B60393FEE728
:1014580000F084F8184B1A68019B13440493174B47
:101468001B680433184600F0FBFD0346002B0BD124
:10147800124B1B68DB6A012202FA03F3DA43104BB2
:101488001B6813400E4A1360049800F0FFFA00F03E
:101498006FF80590059B002B07D10A4B4FF080523F
:1014A8001A60BFF34F8FBFF36F8F00BF07B05DF8AF
:1014B80004FB00BF70050020500500204C040020EC
:1014C8005405002004ED00E000B589B00023039323
:1014D800002302930023019300230093002380221A
:1014E80019491A48FFF7C4FE0790079B012B17D12B
:1014F8004FF0500372B683F31188BFF36F8FBFF3B9
:101508004F8F62B60593124B4FF0FF321A60114BA2
:1015180001221A60104B00221A6000F037FE0EE01C
:10152800079B002B0BD14FF0500372B683F3118841
:10153800BFF36F8FBFF34F8F62B60693FEE700BF0E
:1015480009B05DF804FB00BFF4250008D1180008B5
:101558006C0500205805002050050020034B1B682F
:101568000133024A136000BF704700BF70050020B6
:1015780000B585B0002303933E4B1B68002B0BD1AD
:101588004FF0500372B683F31188BFF36F8FBFF328
:101598004F8F62B60193FEE700F064FE354B1B687F
:1015A800013B344A1360334B1B68002B5BD1324B31
:1015B8001B68002B57D02EE0304BDB68DB680293AA
:1015C800029B1833184600F04BFD029B0433184663
:1015D80000F046FD029BDB6A01229A40284B1B68FB
:1015E8001343274A1360029BDA6A13469B0013448D
:1015F8009B00244A1A44029B04331946104600F003
:10160800DBFC029BDA6A204B1B68DB6A9A4202D336
:101618001E4B01221A60194B1B68002BCCD11C4BA6
:101628001B68002B11D00CE000F036F80346002BA5
:1016380002D0164B01221A60154B1B68013B144A55
:101648001360134B1B68002BEED1104B1B68012B4A
:1016580009D1012303930F4B4FF080521A60BFF357
:101668004F8FBFF36F8F00F02BFE039B184605B01A
:101678005DF804FB700500204C0500200C050020D7
:1016880054050020500400204C0400206005002070
:101698005C05002004ED00E000B587B00023059349
:1016A800514B1B68002B40F08F80504B1B68013357
:1016B8004E4A13604D4B1B680493049B002B21D1A9
:1016C8004B4B1B681B68002B0BD04FF0500372B6B6
:1016D80083F31188BFF36F8FBFF34F8F62B6009308
:1016E800FEE7434B1B680393424B1B68404A136059
:1016F800404A039B1360404B1B6801333E4A13600A
:1017080000F042FA3D4B1B68049A9A424DD3384B7D
:101718001B681B68002B01D1012300E00023002B6C
:1017280004D0364B4FF0FF321A603EE0304B1B6856
:10173800DB68DB680293029B5B680193049A019B58
:101748009A4203D22D4A019B13602EE0029B043378
:10175800184600F085FC029B9B6A002B04D0029B74
:101768001833184600F07CFC029BDB6A01229A4081
:10177800234B1B681343224A1360029BDA6A134601
:101788009B0013449B001F4A1A44029B04331946CA
:10179800104600F011FC029BDA6A1B4B1B68DB6ADF
:1017A8009A42B4D301230593B1E7174B1B68DA6A51
:1017B800144913469B0013449B000B441B68012BE0
:1017C80007D90123059304E0104B1B6801330F4A26
:1017D80013600F4B1B68002B01D001230593059B59
:1017E800184607B05DF804FB70050020500500207E
:1017F8000405002008050020640500206C05002071
:1018080054050020500400204C0400205C050020F2
:101818006005002086B0274B1B68002B03D0264BA1
:1018280001221A6042E0244B00221A60234B1B68F5
:101838000293029BB3FA83F38DF807309DF80730C3
:10184800C3F11F0304931E49049A13469B001344D3
:101858009B000B441B68002B0BD14FF0500372B652
:1018680083F31188BFF36F8FBFF34F8F62B6059371
:10187800FEE7049A13469B0013449B00104A134446
:101888000393039B5B685A68039B5A60039B5A68DF
:10189800039B08339A4204D1039B5B685A68039BF5
:1018A8005A60039B5B68DB68064A136000BF06B09A
:1018B800704700BF70050020600500205405002017
:1018C800500400204C04002000B583B0019000F0C3
:1018D800A3F8064B1B68012BF9D9054B4FF0805232
:1018E8001A60BFF34F8FBFF36F8FF0E750040020EB
:1018F80004ED00E000B587B00390029101920093D7
:101908000023059312E0029A059B13441978039A61
:10191800059B134434330A461A70029A059B1344F4
:101928001B78002B06D0059B01330593059B0F2BD5
:10193800E9D900E000BF039B002283F84320019B04
:10194800062B01D906230193039B019ADA62039BB4
:10195800019ADA64039B00221A65039B0433184634
:1019680000F022FB039B1833184600F01DFB039B75
:10197800039A1A61019BC3F10702039B9A61039BB7
:10198800039A5A62039B00225A65039B002283F83C
:10199800582000BF07B05DF804FB00BF00B583B056
:1019A800002301930CE0019A13469B0013449B000B
:1019B800114A1344184600F0DBFA019B01330193E6
:1019C800019B062BEFD90D4800F0D2FA0C4800F025
:1019D800CFFA0C4800F0CCFA0B4800F0C9FA0B48D3
:1019E80000F0C6FA0A4B054A1A600A4B044A1A6004
:1019F80000BF03B05DF804FB50040020DC040020A5
:101A0800F00400200C0500202005002038050020E7
:101A1800040500200805002000B583B028E0FFF782
:101A28009DFD174B1B68002B0CBF01230023DBB265
:101A38000193FFF79DFD019B002B19D100F012FCCB
:101A48000F4BDB68DB680093009B0433184600F0FB
:101A580007FB0C4B1B68013B0A4A13600A4B1B68C7
:101A6800013B094A136000F02BFC009800F07CF859
:101A7800054B1B68002BD2D100BF03B05DF804FBF7
:101A8800200500204C0500203405002000B583B057
:101A98000190144B1B68019A5A60134B1B68019AFA
:101AA8009A4209D2114B1A680E4B1B680433194627
:101AB800104600F0A1FA10E00D4B1A68094B1B689C
:101AC80004331946104600F097FA0A4B1B68019A2E
:101AD8009A4202D2074A019B136000BF03B05DF827
:101AE80004FB00BF4C04002050050020080500201E
:101AF800040500206C05002000B585B00346009160
:101B0800ADF80630009B002B07D1BDF806309B00CE
:101B1800184600F059F8034600E0009B0293029B28
:101B2800002B0ED05C2000F04FF80390039B002B95
:101B380003D0039B029A1A6305E0029800F00AF9A1
:101B480001E000230393039B002B08D0039B186B31
:101B5800BDF806309B001A46A52100F075FC039BD2
:101B6800184605B05DF804FB00B583B00190019BF1
:101B78001B6B184600F0EEF8019800F0EBF800BF78
:101B880003B05DF804FB00BF82B00D4B1B681B68F7
:101B9800002B01D1012300E00023002B04D0094BC6
:101BA8004FF0FF321A6008E0054B1B68DB68DB6802
:101BB8000193019B5B68034A136000BF02B0704742
:101BC800040500206C05002000B58BB001900023AF
:101BD8000793FFF7C3FC5A4B1B68002B01D100F099
:101BE80015F9584B1A68019B1340002B40F0908060
:101BF800019B002B1ED00822019B13440193019BDB
:101C080003F00703002B15D0019B23F007030833CB
:101C18000193019B03F00703002B0BD04FF05003F7
:101C280072B683F31188BFF36F8FBFF34F8F62B61D
:101C38000393FEE7019B002B6AD0434B1B68019A74
:101C48009A4265D8414B0893404B1B68099304E0BE
:101C5800099B0893099B1B680993099B5A68019B78
:101C68009A4203D2099B1B68002BF1D1344B1B68A5
:101C7800099A9A424CD0089B1B6808221344079380
:101C8800099B1A68089B1A60099B5A68019BD21A1B
:101C980008235B009A4220D9099A019B13440593B3
:101CA800059B03F00703002B0BD04FF0500372B6CF
:101CB80083F31188BFF36F8FBFF34F8F62B606931C
:101CC800FEE7099B5A68019BD21A059B5A60099B3B
:101CD800019A5A60059800F0F7F81B4B1A68099B9F
:101CE8005B68D31A184A1360174B1A68184B1B689D
:101CF8009A4203D2144B1B68154A1360099B5A6811
:101D0800104B1B681A43099B5A60099B00221A60F2
:101D1800FFF72EFC079B03F00703002B0BD04FF0B7
:101D2800500372B683F31188BFF36F8FBFF34F8FE1
:101D380062B60493FEE7079B18460BB05DF804FBF8
:101D48007C4100208841002080410020744100200F
:101D58008441002000B587B00190019B0593019B49
:101D6800002B4AD008235B42059A13440593059B30
:101D78000493049B5A68234B1B681340002B0BD118
:101D88004FF0500372B683F31188BFF36F8FBFF320
:101D98004F8F62B60293FEE7049B1B68002B0BD0A3
:101DA8004FF0500372B683F31188BFF36F8FBFF300
:101DB8004F8F62B60393FEE7049B5A68114B1B686A
:101DC8001340002B19D0049B1B68002B15D1049BD2
:101DD8005A680C4B1B68DB431A40049B5A60FFF798
:101DE800BDFB049B5A68084B1B681344064A1360E2
:101DF800049800F069F8FFF7BBFB00BF07B05DF877
:101E080004FB00BF884100208041002084B04FF4CB
:101E180070530293264B0393039B03F00703002B95
:101E28000CD0039B07330393039B23F0070303930F
:101E3800029A039BD31A1E4A13440293039B0193ED
:101E48001C4A019B13601B4B00225A60019A029B9B
:101E5800134403930822039B9B1A0393039B23F0C9
:101E680007030393039B144A1360134B1B68002258
:101E78005A60114B1B6800221A60019B0093009B5B
:101E8800039AD21A009B5A600B4B1A68009B1A607F
:101E9800009B5B68094A1360009B5B68084A1360F3
:101EA800084B4FF000421A6000BF04B0704700BFF3
:101EB80074050020744100207C41002084410020EA
:101EC800804100208841002084B00190264B039374
:101ED80002E0039B1B680393039B1A68019B9A42C9
:101EE800F7D3039B0293039B5B68029A1A44019BF6
:101EF8009A4208D1039B5A68019B5B681A44039B6A
:101F08005A60039B0193019B0293019B5B68029AB1
:101F18001A44039B1B689A4218D1039B1A68134BF7
:101F28001B689A420DD0019B5A68039B1B685B682B
:101F38001A44019B5A60039B1B681A68019B1A602C
:101F480008E00A4B1A68019B1A6003E0039B1A68B1
:101F5800019B1A60039A019B9A4202D0039B019A43
:101F68001A6000BF04B07047744100207C41002013
:101F780082B00190019B03F10802019B5A60019B0A
:101F88004FF0FF329A60019B03F10802019BDA606F
:101F9800019B03F10802019B1A61019B00221A6050
:101FA80000BF02B0704700BF82B00190019B0022C1
:101FB8001A6100BF02B0704784B001900091019B84
:101FC8005B680393009B039A5A60039B9A68009B83
:101FD8009A60039B9B68009A5A60039B009A9A60D8
:101FE800009B019A1A61019B1B685A1C019B1A608D
:101FF80000BF04B0704700BF84B001900091009BFF
:102008001B680293029BB3F1FF3F03D1019B1B693D
:1020180003930CE0019B0833039302E0039B5B6886
:102028000393039B5B681A68029B9A42F6D9039B49
:102038005A68009B5A60009B5B68009A9A60009BF4
:10204800039A9A60039B009A5A60009B019A1A614E
:10205800019B1B685A1C019B1A6000BF04B07047A3
:1020680084B00190019B1B690393019B5B68019AF3
:1020780092689A60019B9B68019A52685A60039B18
:102088005A68019B9A4203D1019B9A68039B5A6044
:10209800019B00221A61039B1B685A1E039B1A604E
:1020A800039B1B68184604B0704700BF84B00390B8
:1020B80002910192039B043B0393039B4FF08072B0
:1020C8001A60039B043B0393029A039B1A60039BC9
:1020D800043B03930B4A039B1A60039B143B039333
:1020E800019A039B1A60039B043B0393039B6FF0C5
:1020F80002021A60039B203B0393039B184604B01B
:10210800704700BF1121000882B00E4B1B68B3F165
:10211800FF3F0BD04FF0500372B683F31188BFF323
:102128006F8FBFF34F8F62B60093FEE74FF05003F7
:1021380072B683F31188BFF36F8FBFF34F8F62B608
:102148000193FEE704000020064B19680868B0E810
:10215800F04F80F30988BFF36F8F4FF0000080F3D2
:10216800118870474C04002000BF00BF0648006873
:10217800006880F3088862B661B6BFF34F8FBFF37B
:102188006F8F00DF00BF00BF08ED00E000B585B02D
:102198002E4B0393039B1B78DBB20293039BFF2216
:1021A8001A70039B1B78DBB28DF807309DF8073057
:1021B800DBB203F05003DAB2254B1A70254B072225
:1021C8001A600BE0234B1B68013B224A13609DF801
:1021D8000730DBB25B00DBB28DF807309DF80730C3
:1021E800DBB25BB2002BEDDB1A4B1B681B02194AF2
:1021F8001360184B1B6803F4E063164A1360029BD4
:10220800DAB2039B1A70144A134B1B6843F4700329
:102218001360114A104B1B6843F07043136000F0C1
:10222800CBF80E4B00221A6000F0DCF80C4A0C4B7D
:102238001B6843F040431360FFF798FFFFF764FF04
:102248000023184605B05DF804FB00BF00E400E079
:102258008C4100209041002020ED00E00400002087
:1022680034EF00E082B04FF0500372B683F3118868
:10227800BFF36F8FBFF34F8F62B600930E4B1B688F
:1022880001330D4A13600C4B1B68012B10D10B4B0B
:102298001B68DBB2002B0BD04FF0500372B683F3F0
:1022A8001188BFF36F8FBFF34F8F62B60193FEE7BC
:1022B80000BF02B0704700BF0400002004ED00E03A
:1022C80082B0104B1B68002B0BD14FF0500372B635
:1022D80083F31188BFF36F8FBFF34F8F62B60093FC
:1022E800FEE7084B1B68013B064A1360054B1B6859
:1022F800002B04D100230193019B83F3118800BFB5
:1023080002B0704704000020EFF30980BFF36F8F1D
:10231800154B1A681EF0100F08BF20ED108A20E92F
:10232800F04F10604DF8043D4FF0500072B680F346
:102338001188BFF34F8FBFF36F8F62B6FFF76AFA4A
:102348004FF0000080F3118808BC19680868B0E8ED
:10235800F04F1EF0100F08BFB0EC108A80F3098808
:10236800BFF36F8F704700BF4C04002000BF00BF51
:1023780000B585B0EFF311824FF0500372B683F3C6
:102388001188BFF36F8FBFF34F8F62B6029201932C
:10239800FFF782F90346002B03D0064B4FF080521B
:1023A8001A6000230393039B83F3118800BF05B0D1
:1023B8005DF804FB04ED00E0064A074B1B6807497B
:1023C800A1FB03139B09013B1360054B07221A600D
:1023D80000BF704714E000E000000020D34D6210F9
:1023E80010E000E0DFF80C00016841F470010160C2
:1023F800704700BF88ED00E070B50F4E0F4D761B9B
:10240800B61018BF002405D0013455F8043B98478E
:10241800A642F9D10A4E0B4D761B00F0D9F8B6103A
:1024280018BF002406D0013455F8043B9847A6424B
:10243800F9D170BD70BD00BF102600081026000835
:10244800182600081026000870B4840746D0541EC9
:10245800002A41D0CDB2034602E0621EE4B314461E
:1024680003F8015B9A07F8D1032C2ED9CDB245EABF
:1024780005250F2C45EA054519D903F11002264612
:10248800103E0F2E42F8105C42F80C5C42F8085CD3
:1024980042F8045C02F11002F2D8A4F1100222F012
:1024A8000F0204F00F041032032C13440DD91E46FA
:1024B8002246043A032A46F8045BFAD8221F22F07F
:1024C80003020432134404F003042CB1C9B21C44BF
:1024D80003F8011BA342FBD170BC704714460346A6
:1024E800C2E700BF024B13B1024800F005B87047BD
:1024F800000000000D250008002301461A46184672
:1025080000F014B838B5074D074C2C1BA41005D0A3
:10251800013C55F8043D9847002CF9D1BDE83840F6
:1025280000F05CB81C260008182600082DE9F047C2
:10253800254C2568D5F8484106468846924699466E
:10254800C4B360681F2817DC431C76B104EB800510
:102558000122C5F888A0D4F8881182401143022EC0
:10256800C4F88811C5F808911ED00230636044F899
:1025780020800020BDE8F087144B03B34FF4C870E7
:10258800AFF300800446D0B1D5F84831002780E881
:102598008800C5F8484138460123C4F88871C4F852
:1025A8008C71002EE1D0D1E7D4F88C110A43C4F81D
:1025B8008C21DAE705F5A674C5F84841C1E74FF064
:1025C800FF30BDE8F08700BF0C26000800000000BF
:1025D800F8B500BFF8BC08BC9E467047F8B500BF08
:0825E800F8BC08BC9E467047D8
:1025F0004C45440049444C450000000000000000E8
:10260000000000000102030406070809080000207A
:08261000ED240008AD010008F3
:04261800890100082C
:10261C000024F400AAAAAAAA00000000F4020020D8
:10262C005C030020C4030020000000000000000038
:10263C00000000000000000000000000000000008E
:10264C00000000000000000000000000000000007E
:10265C00000000000000000000000000000000006E
:10266C00000000000000000000000000000000005E
:10267C00000000000000000000000000000000004E
:10268C00000000000000000000000000000000003E
:10269C00000000000000000000000000000000002E
:1026AC00000000000000000000000000000000001E
:1026BC00000000000000000000000000000000000E
:1026CC0001000000000000000E33CDAB34126DE6AB
:1026DC00ECDE05000B000000000000000000000014
:1026EC0000000000000000000000000000000000DE
:1026FC0000000000000000000000000000000000CE
:10270C0000000000000000000000000000000000BD
:10271C0000000000000000000000000000000000AD
:0400000508000409E2
:00000001FF
